:100000000C94EA000C9412010C9412010C9412014D
:100010000C9412010C9412010C9412010C94120114
:100020000C9412010C9412010C9412010C940E0801
:100030000C9412010C9412010C9412010C941201F4
:100040000C94C4070C9412010C9492070C946C0746
:100050000C9412010C9412010C9412010C941201D4
:100060000C9412010C941201638253630001080086
:100070000604000100000000240027002A00000000
:100080000000250028002B000404040404040404D8
:100090000202020202020303030303030102040833
:1000A00010204080010204081020010204081020E2
:1000B0000000000800020100000304070000000027
:1000C0000000000045000082000040002048545419
:1000D000502F312E302035303320536572766963CE
:1000E0006520556E617661696C61626C650D0A43CD
:1000F0006F6E74656E742D547970653A20746578EE
:10010000742F68746D6C0D0A52657472792D416696
:100110007465723A203630300D0A0D0A3C68746DF1
:100120006C3E3C686561643E3C7469746C653E4439
:1001300061746120446972693C2F7469746C653E16
:100140003C2F686561643E3C626F64793E3C683375
:100150003E417567657376696E612053656979758F
:1001600073616E6461204C6573746172693C2F68C1
:10017000333E3C703E3C656D3E5633393230303153
:10018000313C6272202F3E323520416775737475A1
:100190007320323030313C6272202F3E61756765CA
:1001A0007376696E6132354073747564656E742E52
:1001B000756E732E61632E69643C2F656D3E3C2F16
:1001C000703E3C2F626F64793E3C2F68746D6C3ECC
:1001D00000006D0E11241FBECFEFD8E0DEBFCDBFF3
:1001E00011E0A0E0B1E0E8EEFDE102C005900D9263
:1001F000AE38B107D9F724E0AEE8B1E001C01D92F6
:10020000A83AB207E1F710E0CAEED0E004C02197A7
:10021000FE010E94DF0EC93ED107C9F70E94720895
:100220000C94F20E0C940000CF93DF9320910704FE
:100230002223C1F0FC0120812223A1F0C7E0D4E0F9
:10024000A3E0B4E09C012C5F3F4F899141919D91C7
:100250008427892339F4E217F307B9F781E0DF91A6
:10026000CF91089580E0FBCFAF92BF92CF92DF9203
:10027000EF92FF920F931F93CF93DF936C017B015B
:100280008B01040F151FEB015E01AE18BF08C017EC
:10029000D10759F06991D601ED91FC910190F0815F
:1002A000E02DC6010995892B79F7C501DF91CF9122
:1002B0001F910F91FF90EF90DF90CF90BF90AF9084
:1002C0000895FC01538D448D252F30E0842F90E05C
:1002D000821B930B541710F0CF9608950197089541
:1002E000FC01918D828D981761F0A28DAE0FBF2F0A
:1002F000B11D5D968C91928D9F5F9F73928F90E060
:1003000008958FEF9FEF0895FC01918D828D9817CE
:1003100031F0828DE80FF11D858D90E008958FEF0B
:100320009FEF0895FC01918D228D892F90E0805CD4
:100330009F4F821B91098F73992708958BE094E05A
:100340000E94920121E0892B09F420E0822F089578
:1003500080E090E0892B29F00E949E0181110C948D
:1003600000000895FC01A48DA80FB92FB11DA35A58
:10037000BF4F2C91848D90E001968F739927848FC5
:10038000A689B7892C93A089B1898C9183708064E8
:100390008C93938D848D981306C00288F389E02D89
:1003A00080818F7D80830895EF92FF920F931F933A
:1003B000CF93DF93EC0181E0888F9B8D8C8D981318
:1003C0001AC0E889F989808185FF15C09FB7F89424
:1003D000EE89FF896083E889F98980818370806470
:1003E00080839FBF81E090E0DF91CF911F910F91BB
:1003F000FF90EF900895F62E0B8D10E00F5F1F4FCA
:100400000F731127E02E8C8D8E110CC00FB607FCD8
:10041000FACFE889F989808185FFF5CFCE010E9466
:10042000B201F1CFEB8DEC0FFD2FF11DE35AFF4F21
:10043000F0829FB7F8940B8FEA89FB8980818062F4
:10044000CFCFCF93DF93EC01888D8823B9F0AA89B1
:10045000BB89E889F9898C9185FD03C0808186FD7F
:100460000DC00FB607FCF7CF8C9185FFF2CF8081CE
:1004700085FFEDCFCE010E94B201E9CFDF91CF9190
:10048000089590E0FC01E055FF4F2491FC01E456F3
:10049000FF4F3491FC01E857FF4FE491EE23C9F080
:1004A000222339F0233001F1A8F4213019F1223050
:1004B00029F1F0E0EE0FFF1FE258FF4FA591B49134
:1004C0008FB7F894EC91611126C030953E233C9390
:1004D0008FBF08952730A9F02830C9F0243049F79C
:1004E000809180008F7D03C0809180008F77809302
:1004F0008000DFCF84B58F7784BDDBCF84B58F7D5F
:10050000FBCF8091B0008F778093B000D2CF8091E5
:10051000B0008F7DF9CF3E2BDACFCF93DF9390E001
:10052000FC01E456FF4F249188579F4FFC018491B2
:100530008823D1F090E0880F991FFC01EC58FF4F01
:10054000A591B491FC01E258FF4FC591D49161117E
:100550000EC09FB7F8948C91E22FE0958E238C9378
:100560002881E223E8839FBFDF91CF9108958FB761
:10057000F894EC91E22BEC938FBFF6CF3FB7F89451
:100580008091BB019091BC01A091BD01B091BE01D1
:1005900026B5A89B05C02F3F19F00196A11DB11DDE
:1005A0003FBFBA2FA92F982F8827BC01CD01620F1A
:1005B000711D811D911D42E0660F771F881F991FD5
:1005C0004A95D1F708952FB7F8946091B7017091CB
:1005D000B8018091B9019091BA012FBF089580911F
:1005E0001F029091200298278927982744972091ED
:1005F0003D0230E044E0359527954A95E1F7220F1A
:10060000331F220F331F821B930B97FF02C090E012
:1006100080E008952091330230913102309333020B
:10062000209331022091340230913202309334020F
:1006300020933202EFE0F2E021A5820F911D25A563
:1006400085A7662381F021A7892F9927319722E07A
:10065000EB30F20789F7109241021092420280E5D6
:1006600080933D02089511A6EFCF0F931F93CF9370
:10067000DF9370E0615F7D4F8A01075F1F4F21307C
:1006800029F0223031F48A010250110930E020E0D3
:1006900003C000E010E09801EB01FA01E230F1053F
:1006A00058F0A991B991BA27AB27BA270A0F1B1F97
:1006B000211D311D3297F2CFFA01EE7F6E0F7F1FA1
:1006C0004E175F0769F0FB01408150E070E060E089
:1006D000762F652F542F4427040F151F261F371F11
:1006E000A90166277727411551056105710519F0A4
:1006F00022273327F1CF00951095E82FF0E0E15F36
:10070000FD4F10830183DF91CF911F910F910895C9
:10071000EFE0F2E0108E118E80E4848B158A868BD8
:1007200020E044E150E06EE088E10C9435038EBD9A
:100730000DB407FEFDCF089561E08091BF010E94D6
:10074000410278940895F89460E08091BF010C9480
:1007500041020F931F93CF93DF93EC018B010E9413
:10076000A3032097B9F08AE30E9497031EBCF80107
:10077000CE01019739F00DB407FEFDCF2EB51EBC9A
:100780002193F7CF2197C00FD11F0DB407FEFDCFE6
:100790008EB58883DF91CF911F910F910C949C03AC
:1007A0001F93CF93DF93182FC62FD42F0E94A3033C
:1007B0008C2F8F71812B0E9497038D2F0E9497039E
:1007C000DF91CF911F910C949C03CF93C82FC076DB
:1007D0008091B5018C1799F043E06FE180EA0E94A7
:1007E000D003C093B5014C2F50E085E05595479557
:1007F0008A95E1F76FE180E8CF910C94D003CF9117
:100800000895CF93DF93C82FD62F0E94E5034D2F75
:100810006C2F80E4DF91CF910C94D003CF93DF93C2
:10082000C82FD72F0E9401046D2F81E08C0FDF911C
:10083000CF910C940104CF93C82F0E94E5030E942E
:10084000A3038C2F8F710E94970380E00E9497036F
:10085000C7FF03C080E00E949703CEB50E949C03AF
:100860008C2FCF910895CF93DF93EC0140E86FE197
:1008700080E80E94D00340E86FE180EA0E94D00344
:100880004AE06CE180EA0E94D00360E07CE082E014
:100890000E940E04BE01745F86E00E940E0440E0D8
:1008A00060E08AE70E94D0030E94A3032097B1F082
:1008B0008AE70E94970380910F028EBDE0E1F2E08B
:1008C000C15FDD4FEC17FD0731F081910DB407FEDC
:1008D000FDCF8EBDF7CF0DB407FEFDCF0E949C0368
:1008E00048E06FE180E80E94D003D0E0C0E08CE1F6
:1008F0000E941B048A7029F42196C83E83E0D80721
:10090000B1F78CE10E941B0481FD03C0C83ED340B7
:1009100039F448E06FE180EADF91CF910C94D00385
:10092000DF91CF9108950F931F93CF93DF938C01A5
:100930008896CFE0D2E0988B898B0E9488031AAA10
:100940001BAAA801445E5F4F22E06AE182E30E9495
:100950003503C801C696DF91CF911F910F910C947A
:100960003304CF93DF93EB01682F84ED0E940104E1
:10097000BE0186ED0E940E048AEE0E941B0480FDDB
:10098000FBCFDF91CF910895CF92DF92EF92FF924C
:100990000F931F938634910568F12091320223341E
:1009A00049F5C0903D02D0903E02E0903F02F090A9
:1009B00040020091D1011091D2012091D3013091D8
:1009C000D401C016D106E206F306A1F4E9E2F3E091
:1009D000815F9D4F9F012E5F3F4F41815081553375
:1009E00019F45281651771F0F901E40FF11DE81750
:1009F000F90780F380E01F910F91FF90EF90DF9057
:100A0000CF90089581E0F7CFE091B301F091B40168
:100A10009F012F5F3F4F3093B4012093B301808338
:100A20000895FF920F931F93CF93DF93162FF42E09
:100A3000052F0E940405812F0E940405CF2DD02F81
:100A4000115020F089910E940405FACFDF91CF91D7
:100A50001F910F91FF900895FC0101900020E9F78C
:100A60003197AF01481B590BBC018BE094E00C940B
:100A700034018F929F92AF92BF92CF92DF92EF920A
:100A8000FF921F93CF93DF93CDB7DEB7A1970FB639
:100A9000F894DEBF0FBECDBFD62E172F0E942C05B7
:100AA000ED2CF12E10E08AE0882E912CA12CB12C97
:100AB000F70121917F0130E050E040E019A26E0182
:100AC000F1E2CF0ED11CCA01B901A50194010E9427
:100AD000AE0E605DF60162936F012115310541058F
:100AE000510589F7309719F0CF010E942C0513307A
:100AF00029F06EE28BE094E00E94D4011F5F143075
:100B0000B9F688E491E00E942C05A1960FB6F894FE
:100B1000DEBF0FBECDBFDF91CF911F91FF90EF9051
:100B2000DF90CF90BF90AF909F908F900895DC01A1
:100B300096E0FB0101900D929A95E1F70895CF930D
:100B4000DF93EB0144E050E0BC018BE292E00E94B5
:100B5000E50E892B49F465E272E0CE010E9497050B
:100B600081E0DF91CF91089580E0FBCFBC018FE061
:100B700092E00E94970562EE71E085E192E00C94AC
:100B80009705DC0194E0FB0101900D929A95E1F745
:100B900008950F931F93CF938C0182E491E00E94FC
:100BA000B605EFE0F2E088E08487C6E0C58748E05C
:100BB00050E06CE670E08DE192E00E949A0EEFE268
:100BC000F2E0DF011D92CA95E9F762EE71E085E27D
:100BD00092E00E949705B80185E392E00E94C1056A
:100BE00067E074E08BE292E00E94C1058AE290E047
:100BF000CF911F910F910C94330485E192E00E94F4
:100C0000B60569E272E08DE292E00E94C10567E0FC
:100C100074E089E292E00E94C1050C948803262FBB
:100C2000206120933E02643021F0009711F481E0AE
:100C300090E061E00E940A0310921F0288E2809314
:100C400020020E94FD0584E080933F021092400242
:100C500022E04CE150E06AE182E30E94350386E342
:100C600090E00C943304CF93DF93EB010E94B60520
:100C7000BE018DE292E00E94C10567E074E089E266
:100C800092E0DF91CF910C94C105EF92FF920F9308
:100C90001F93CF93DF938C01EFE0F2E086E191E0C8
:100CA000DF019C011D9221503040E1F78091E1016C
:100CB000C2E4D1E0833011F4CCECD1E0CE010E944B
:100CC0001401BE01882309F4ACC08CEE91E00E94AF
:100CD00033068881807F803E91F088819981AA8146
:100CE000BB818F3F9F4FAF4FBF4F49F044E050E073
:100CF000BE0188EE91E00E94E50E892B31F462E49A
:100D000071E08FE092E00E94970588E080931B02DB
:100D100010921C0249E050E064EC70E08DE192E03A
:100D20000E949A0E10921F0281E180932602109277
:100D3000330283E4809334021092310284E480937E
:100D4000320210923502109237021092380262E499
:100D500071E08FE092E00E94970581E08093390274
:100D600080933A0286E080933B028091D10190917A
:100D7000D201A091D301B091D40180933D02909310
:100D80003E02A0933F02B0934002C091E101C33004
:100D900031F467E074E085E492E00E94C10562EE00
:100DA00071E085E592E00E94970585E293E09093DB
:100DB000B4018093B301E8E6F0E084910E94040559
:100DC000E9E6F0E084910E940405EAE6F0E084910F
:100DD0000E940405EBE6F0E084910E94040585E39F
:100DE0000E94040581E00E94040583E0C11101C056
:100DF00081E00E9404058DE30E94040587E00E94C3
:100E0000040581E00E94040582EEE82E81E0F82EC0
:100E1000C7E0C15049F0D7018D917D010E940405C2
:100E2000F8CF82EF91E053CF80910001882371F0D9
:100E300060E071E0FB0101900020E9F7BF01615023
:100E4000714040E051E08CE00E9411050115110550
:100E500059F0A80164E082E30E9411054CEC51E0D6
:100E600064E086E30E94110587E30E94040583E0A5
:100E70000E94040581E00E94040583E00E940405AD
:100E800086E00E9404058FEF0E940405C091B30123
:100E9000D091B401C953D240CE014C9690931F0219
:100EA000809320020E948803CE0108969093350219
:100EB00080933602AE01405F5F4F21E06AE188E235
:100EC0000E943503CE018A96DF91CF911F910F9139
:100ED000FF90EF900C9433041F920F920FB60F9275
:100EE00011242F933F934F935F936F937F938F932F
:100EF0009F93AF93BF93EF93FF938BE094E00E9497
:100F0000B201FF91EF91BF91AF919F918F917F912E
:100F10006F915F914F913F912F910F900FBE0F9066
:100F20001F9018951F920F920FB60F9211242F93B6
:100F30008F939F93EF93FF93E0911B04F0911C0418
:100F40008081E0912104F091220482FD1BC09081F8
:100F5000809124048F5F8F7320912504821741F0C4
:100F6000E0912404F0E0E55FFB4F958F809324042B
:100F7000FF91EF919F918F912F910F900FBE0F9046
:100F80001F9018958081F4CF1F920F920FB60F9289
:100F900011242F933F938F939F93AF93BF9380918F
:100FA000B7019091B801A091B901B091BA01309107
:100FB000B60123E0230F2D3758F50196A11DB11D71
:100FC0002093B6018093B7019093B801A093B90123
:100FD000B093BA018091BB019091BC01A091BD0179
:100FE000B091BE010196A11DB11D8093BB019093EC
:100FF000BC01A093BD01B093BE01BF91AF919F9181
:101000008F913F912F910F900FBE0F901F901895C9
:1010100026E8230F0296A11DB11DD2CF1F920F9279
:101020000FB60F9211242F933F938F939F93EF93BB
:10103000FF938091B20187FF1FC01092850010922C
:1010400084008091B2018F5F8093B2018091B201E0
:1010500087FF04C08091B2018C30ACF08091840095
:1010600090918500049680349C4990F18091840091
:101070009091850004962EC08091B20187FFE1CF48
:101080008091B201DECF2091840030918500E09103
:10109000B2018E2FEE0F990BFC01EE0FFF1FE80F30
:1010A000F91FE257FE4F81819281820F931F909327
:1010B0008900809388008091B201FF91EF919F9108
:1010C0008F913F912F910F900FBE0F901F90189509
:1010D00080E49CE990938900809388008FEF80934F
:1010E000B201EBCFCF93DF9300D000D000D0CDB7CB
:1010F000DEB7789484B5826084BD84B5816084BD98
:1011000085B5826085BD85B5816085BD80916E00A5
:10111000816080936E0010928100809181008260D6
:101120008093810080918100816080938100809113
:1011300080008160809380008091B1008460809302
:10114000B1008091B00081608093B00080917A00FE
:10115000846080937A0080917A00826080937A0024
:1011600080917A00816080937A0080917A00806813
:1011700080937A001092C100E0911B04F0911C044E
:1011800082E08083E0911B04F0911C041082E091C6
:101190001704F09118041082E0911904F0911A04D8
:1011A00080E1808310922304E0911F04F0912004D9
:1011B00086E08083E0911D04F0911E0480818061AF
:1011C0008083E0911D04F0911E04808188608083FB
:1011D000E0911D04F0911E04808180688083E0917D
:1011E0001D04F0911E0480818F7D80838BE491E04B
:1011F0000E942C0588E491E00E942C0510920C02BC
:1012000087E390E0C12CD12C7601C3940097C1F004
:10121000FC0123E0F595E7952A95E1F7E054FE4FB0
:10122000282F2770B701A60104C0440F551F661F61
:10123000771F2A95D2F72081242B20830197E6CFB0
:1012400068E271E082EE91E00E94970584EF91E000
:101250009093C8018093C7010CB406FC25C061E0DF
:101260008AE00E948D0261E08AE00E94410261E012
:101270008BE00E948D0261E08DE00E948D0260E0B3
:101280008CE00E948D0261E08BE00E94410260E0F0
:101290008BE00E94410260E08DE00E94410280E507
:1012A0008CBD8DB581608DBD8AE08093BF0161E00A
:1012B0000E948D020E949C034FEF60E08FEF0E941E
:1012C000D0030E94BE026B017C0192E0892E912C1A
:1012D000A12CB12C0E94BE026C197D098E099F09B8
:1012E000683E734081059105A8F328EEC20E23E005
:1012F000D21EE11CF11C8A9489288A288B2829F0A7
:10130000812C912C54018394E5CF0E94A3038DE19D
:101310000E94970380E00E9497031EB50E949C03E1
:10132000112399F370E060E088E00E940E0470E001
:1013300060E08CE00E940E046FEF7BE08AE00E9488
:101340000E0460E07CE084E00E940E046FEF71E127
:1013500086E00E940E0466E774E084E10E94B10416
:1013600061EB88E30E9401046FE370E388E20E946E
:101370000E0469EF77EF80E30E940E0461E080ECD9
:101380000E94010442E362EC80E80E94D00362E123
:101390007CE086EC0E940E0462E184EC0E94010471
:1013A0006CED75E08AEC0E940E046091E20184EE1F
:1013B0000E9401046091E30185EE0E9401046091A6
:1013C000E40182EE0E9401046091E50183EE0E9437
:1013D00001046091E60180EE0E9401046091E70142
:1013E00081EE0E94010460E071E080E10E94B1049E
:1013F0008FE10E94E50340EC6BE180E80E94D0039E
:1014000044E06FE180E80E94D00382E70E941B0461
:10141000863008F08F5F811108C087E591E00E9457
:101420002C0588E491E00E942C0510920C0264E2E5
:1014300071E087E094E00E94C10510920A021092C8
:10144000090281E080930B0260E271E085E092E0A6
:101450000E94C105E7E0F4E023E034E048EE51E00B
:101460009191D9018D919D018095892BDA018D9300
:10147000AD01B4E0EB30FB0799F767E074E08CE76F
:1014800091E00E94390565E072E082E891E00E94F7
:10149000390560E072E088E891E00E94390514E0C7
:1014A000E12EFF24F39403E0702EECE26E2EF0E6C2
:1014B0005F2EA8E73A2EB6E04B2E8091CB01882311
:1014C00079F06091C9017091CA016115710509F047
:1014D00030C16FEF7BE08CE00E940E041092CB01D4
:1014E00089E30E941B0410E000E08823C1F16091B1
:1014F000C9017091CA0180E00E940E04BE016F5FB5
:101500007F4F86E090E00E94A90389819A819093A1
:10151000CA018093C9018D819E818C0100781127B9
:1015200087FF12C08B819C8104970091C7011091A5
:10153000C801015011098017910708F48C016FE070
:1015400072E0C8010E94A903F801E15FFD4F10821B
:10155000F092CB0140E46EE180E80E94D0038091DC
:101560000C02882369F08091E101823009F4EAC01D
:1015700008F0E2C0882309F46BC1813009F488C106
:101580000115110509F015C280910B02857029F132
:101590008091090290910A02892BF9F461E184EDAE
:1015A0000E94010461E082ED0E9401048AEE0E9423
:1015B0001B0480FDFBCF60E082ED0E94010489EDF9
:1015C0000E941B0482FF09C085E092E00E94C905C9
:1015D00080910B02886080930B02809109029091A8
:1015E0000A02019690930A028093090280910402F4
:1015F000813009F069C080910B0281FF65C082E0F3
:101600008093040280912F018F5F80932F01182F08
:101610001F718AEF91E00E9414016AEF71E0882344
:1016200009F4C4C18CEE91E00E94330608E00093F7
:101630001B0210921C0249E050E064EC70E08DE166
:1016400092E00E949A0E60922002409226020E942E
:10165000880310923302109234028BE0809331029F
:1016600010933202E5E3F2E0DF011D920A95E9F7FB
:1016700080912E01809337028D5F80932E015092CE
:101680003D0282E080933E0270923F02109240023F
:1016900010924102109242021092430210924402B0
:1016A00080934502E09246028093470286E280934F
:1016B000480222E040E250E06AE182E30E94350302
:1016C0008AE390E00E94330480E092E00E941401DB
:1016D000882371F08091FF0181110AC08091FE0181
:1016E000811106C080E092E00E94C905F092FE01DF
:1016F0008AEF91E00E941401882371F08091F90132
:1017000081110AC08091F801811106C08AEF91E031
:101710000E94C905F092F80180E090E0892B09F45D
:10172000CCCE0E949E01882309F4BFCE0E94000007
:10173000BCCE61507109CFCE833009F455C08430DE
:1017400009F01ECF65E0C8010E94C404882309F493
:10175000CAC08091D001811108C088E30E941B0497
:10176000682F6E7F88E30E94010469E472E087E0DD
:1017700094E00E94C105E9E2F3E0C801815F9D4F5A
:101780004C016F0192E0C90ED11C2180808186300E
:1017900009F4FBC008F0BEC0813009F4ECC083300E
:1017A00009F4EFC0F601E20DF11DE815F90548F363
:1017B0000E94E3026093D9017093DA018093DB0108
:1017C0009093DC0180910502882359F010920A025F
:1017D00010920902F0920B0265E072E0CB010E94C8
:1017E000C1057092E101CCCE8090DD019090DE01C8
:1017F000A090DF01B090E0012FEF82169206A206C2
:10180000B20609F4BDCE0E94E3022091D9013091C5
:10181000DA014091DB015091DC01621B730B840BF8
:10182000950B681579058A059B0508F4A9CE87E014
:1018300094E00E944506E092E1010E94E302609379
:10184000D5017093D6018093D7019093D80198CE9B
:101850000E94E3026093D1017093D2018093D3017F
:101860009093D401E7E0F4E0DF012E2D1D922A953C
:10187000E9F790E080E00E94450688E30E941B049F
:10188000682F616088E30E940104F092E101D5CFE6
:1018900062E0C8010E94C404882329F169E472E06F
:1018A000CE0101960E94C105E9E2F3E0C801815F23
:1018B0009D4FBF016E5F7F4F21813081363361F4D0
:1018C0008CEC91E00E94C105CE0101960E94450674
:1018D00082E08093E101B1CFFB01E20FF11DE81737
:1018E000F90738F3F1CF0E94E3022091D50130913E
:1018F000D6014091D7015091D801621B730B840B24
:10190000950B613177428105910508F439CE10922B
:10191000E10136CE8A3331F08F3F09F449CF83336A
:1019200009F040CF1092DD011092DE011092DF012C
:101930001092E001F601C601049620E030E0A90112
:101940006191542F432F322F2227260F311D411D25
:10195000511D8E179F07A1F72F3FAFEF3A074A0798
:101960005A07B9F42093DD013093DE014093DF0183
:101970005093E00117CFB60183E094E00E94C105C7
:1019800011CFB60185E092E0F9CFB60180E092E098
:10199000F5CFA8EEB3E00E94A30E6093DD01709333
:1019A000DE018093DF019093E001FCCE82EF91E0B5
:1019B0003BCE0932110508F4AFCE80911B0288306E
:1019C00009F0AACE80911C02863009F03EC144E0A5
:1019D00050E067E074E085E392E00E94E50E892B19
:1019E00009F09ACE80912402813029F585E192E0B8
:1019F0000E94B6051092230282E08093240265E2E1
:101A000072E08FE292E00E94970562EE71E085E25B
:101A100092E00E9497056BE272E085E392E00E94FB
:101A2000C10567E074E08BE292E00E94C1058AE2A2
:101A300090E00E94330480910B0283FF0DC010914F
:101A40002402123049F462EF71E085E092E00E94D6
:101A50009F05811110930B028091FF01811110C02D
:101A60008091FE01882361F06CEE71E080E092E0ED
:101A70000E949F05882321F0F092FF011092FE0141
:101A80008091F901811148CE8091F801882309F4F1
:101A900043CE6CEE71E08AEF91E00E949F058823AF
:101AA00009F43ACEF092F9011092F80135CE0633DE
:101AB000110508F431CE863009F02ECE8091330224
:101AC0008B3009F04CC044E050E06AEF71E089E2ED
:101AD00092E00E94E50E892B09F01ECE10913E0285
:101AE00012FF04C085E08093040216CE0E94EF022C
:101AF000209104022230F9F4212F20711271123149
:101B000079F460E090E080E00E940F0688E1809325
:101B10003E027092040290E080E00E949304FCCDAB
:101B2000F09204020196222311F090E080E064E03C
:101B30000E940F06F1CD253009F4EECD10FF0AC04A
:101B4000233009F4E9CD69E001960E940F06409226
:101B50000402E2CD60E0009709F4DECDE9CF811107
:101B6000DBCD80913402803509F0D6CDD0903E0295
:101B7000D1FE35C010921F02609220020E94FD0526
:101B8000B2E1B0933E0260E081E090E00E940A037F
:101B9000109235021092360280912E018093370206
:101BA000109238028D5F80932E0182E0809345026F
:101BB000E092460285E080934702109248025092DC
:101BC0003D0280933F023092400222E040E250E02A
:101BD0006AE182E30E9435038AE390E07BC0D4FE91
:101BE0009BCD0E94EF0290930E0280930D02892BF1
:101BF00031F180913D0290E024E0959587952A95FA
:101C0000E1F7880F991F880F991F82960817190707
:101C100008F482CD44E051E06DEC70E085E492E0A0
:101C20000E949A0E60E080910D0290910E020E9437
:101C30000F0629E120933E0283E091E06ECFD0FEB3
:101C40006BCD60E090E080E073CF0932110509F4BC
:101C500063CD811161CD80911D02853409F05CCD89
:101C600044E050E067E074E08DE292E00E94E50E0F
:101C7000892BA9F044E050E068EE71E08DE292E03B
:101C80000E94E50E892B59F044E050E062E471E0D7
:101C90008DE292E00E94E50E892B09F03DCD809106
:101CA0002602813009F003CF80913102883009F09B
:101CB00033CD0E94FD051092310280913302883F9E
:101CC00028F0909134029F5F90933402885F809354
:101CD0003302C8010E9433041FCDEBE0F4E013820D
:101CE000128288EE93E0A0E0B0E084839583A6831F
:101CF000B78384E391E09183808385EC90E09587BE
:101D0000848784EC90E09787868780EC90E0918BC5
:101D1000808B81EC90E0938B828B82EC90E0958BB2
:101D2000848B86EC90E0978B868B118E128E138EAF
:101D3000148E0895FB01DC0102C005900D92415004
:101D40005040D8F708950E94D00EA59F900DB49FE3
:101D5000900DA49F800D911D11240895A1E21A2ECB
:101D6000AA1BBB1BFD010DC0AA1FBB1FEE1FFF1F3F
:101D7000A217B307E407F50720F0A21BB30BE40B8F
:101D8000F50B661F771F881F991F1A9469F76095D6
:101D90007095809590959B01AC01BD01CF01089590
:101DA000A29FB001B39FC001A39F700D811D11249C
:101DB000911DB29F700D811D1124911D0895EE0F8C
:101DC000FF1F0590F491E02D0994FB01DC0104C094
:101DD0008D910190801921F441505040C8F7881B23
:081DE000990B0895F894FFCF60
:101DE80041726475696E6F2D454E4332386A3630DC
:101DF8002D3030000000000000000000000000004E
:101E0800C0A8006FC0A800C87469692D30310A01E4
:101E180000000000D4013401610121029201700127
:101E28008401FFFFFFFFFFFF0D0A000A5B62616389
:101E38006B536F6F6E5D004661696C656420746FEB
:101E4800206163636573732045746865726E657499
:101E580020636F6E74726F6C6C65720049503A2023
:0E1E6800200047573A202000444E533A2000F5
:00000001FF
